:030000000208B043
:0C08B000787FE4F6D8FD7581080208820C
:1008820075808075B0EFE5A0F4FFE4FDFCEF30E782
:10089200020508EF25E0FF0DBD00010CED64094CD7
:0E08A20070EBAF081208008F90E4F50880D8C4
:10080000EFB41000507790080DF828287302083DC7
:1008100002084102084502084902084D0208510237
:10082000085502085902085D0208610208650208BD
:100830006902086D0208710208750208797E40801D
:100840003E7E79803A7E2480367E3080327E1980EA
:100850002E7E12802A7E0280267E788022E4FE8010
:100860001E7E10801A7E0880167E0380127E4680CF
:100870000E7E21800A7E0680067E0E80027E80AF7C
:010880000671
:010881002254
:00000001FF
