:100000000C9434000C9446000C9446000C9446006A
:100010000C9446000C9446000C9446000C94460048
:100020000C9446000C9446000C9446000C94460038
:100030000C9446000C9446000C9465000C94460009
:100040000C9446000C9446000C9446000C94460018
:100050000C9446000C9446000C9446000C94460008
:100060000C9446000C94460011241FBECFEFD8E03C
:10007000DEBFCDBF21E0A0E0B1E001C01D92A13004
:10008000B207E1F70E9448000C9494000C94000021
:100090009FEF94B915B885B5846085BD85B58D7F12
:1000A00085BD85B5816085BDEEE6F0E0808182602A
:1000B000808385B5877F85BD84B5826084BD84B526
:1000C0008E7F84BD97BD7894FFCF1F920F920FB69D
:1000D0000F9211248F93289829982A982B98809111
:1000E0000001843109F4289A80910001883209F4D2
:1000F000299A809100018C3309F42A9A8091000199
:10010000803509F42B9A809100018F5F8093000164
:1001100080910001813510F0109200018F910F90B5
:0C0120000FBE0F901F901895F894FFCFB1
:00000001FF
