S00D000037343539352E7372656309
S11300000C9434000C9449000C9449000C9449005D
S11300100C9449000C9449000C9449000C94490038
S11300200C9449000C9449000C9449000C94490028
S11300300C9449000C9449000C9449000C94490018
S11300400C9449000C9449000C9449000C94490008
S11300500C9449000C9449000C9449000C944900F8
S11300600C9449000C94490011241FBECFEFD8E032
S1130070DEBFCDBF11E0A0E0B1E0ECE3F1E002C0EF
S113008005900D92A031B107D9F70E944B000C9452
S11300909C000C940000CF93DF93CDB7DEB760973C
S11300A00FB6F894DEBF0FBECDBF8FE187B918B885
S11300B080E1E0E0F1E0DE01119601900D928A9575
S11300C0E1F7459A419A40E060E050E070E001C0F9
S11300D0472F862F952FE1E0F0E0EC0FFD1FE40F92
S11300E0F11D208130E0082E02C0359527950A9431
S11300F0E2F720FF02C0409A01C04098429A429819
S113010001968830910569F7439A2FEF83EC99E0C3
S1130110215080409040E1F700C0000043982FEF49
S113012083EC99E0215080409040E1F700C000004A
S10F01304F5F403168F6CDCFF894FFCF4C
S113013C4079243019120278001808034621060E5F
S9030000FC
