:100000000C9434000C9449000C9449000C94490061
:100010000C9449000C9449000C9449000C9449003C
:100020000C9449000C9449000C9449000C9449002C
:100030000C9449000C9449000C9449000C9449001C
:100040000C9449000C9449000C9449000C9449000C
:100050000C9449000C9449000C9449000C944900FC
:100060000C9449000C94490011241FBECFEFD8E036
:10007000DEBFCDBF11E0A0E0B1E0EAE1F1E002C0F7
:1000800005900D92AE30B107D9F70E944B000C9449
:100090008B000C940000CF93DF93CDB7DEB72E9783
:1000A0000FB6F894DEBF0FBECDBF8EE0E0E0F1E00A
:1000B000DE01119601900D928A95E1F78FEF8BB9D1
:1000C0008AB95E9ABE01635F7F4F41E050E0FE0156
:1000D00031962BB180813296DA0102C0AA0FBB1F84
:1000E0008A95E2F7CD01822B8BB99BB19A010080F2
:1000F00002C0220F331F0A94E2F7822F80958923D2
:100100008BB98FE39CE90197F1F700C00000E61777
:0A011000F707F9F6DCCFF894FFCFF3
:0E011A000000010002000300040005000000C8
:00000001FF
