:100000000C9434000C9449000C9449000C94490061
:100010000C9449000C9449000C9449000C9449003C
:100020000C9449000C9449000C9449000C9449002C
:100030000C9449000C9449000C9449000C9449001C
:100040000C9449000C9449000C9449000C9449000C
:100050000C9449000C9449000C9449000C944900FC
:100060000C9449000C94490011241FBECFEFD8E036
:10007000DEBFCDBF11E0A0E0B1E0E8E3F1E002C0F7
:1000800005900D92AE30B107D9F70E944B000C9449
:100090009A000C940000CF93DF93CDB7DEB72E9774
:1000A0000FB6F894DEBF0FBECDBF8EE0E0E0F1E00A
:1000B000DE01119601900D928A95E1F78FEF8BB9D1
:1000C0008AB9BE016F5F7F4F9E01215F3F4FD62EE1
:1000D000E72E41E050E001E0F12CDB01ED2DFE2D9B
:1000E0001BB1808132965A0102C0AA0CBB1C8A95B2
:1000F000E2F7C501812B8BB98FE39CE90197F1F7FA
:1001000000C00000E217F30759F79BB1ED91FD9194
:10011000802F1E161F060CF48F2D809589238BB916
:100120008FE39CE90197F1F700C00000A217B30725
:0801300061F7D3CFF894FFCF73
:0E0138000000010002000300040005000600A4
:00000001FF
