S0130000436F6E766572736F7241442E73726563CB
S11300000C9434000C9468010C9451000C9451002D
S11300100C9451000C9451000C9451000C94510018
S11300200C9451000C9451000C9451000C94510008
S11300300C9451000C9451000C9490010C945100B8
S11300400C9451000C9451000C9451000C945100E8
S11300500C9451000C949A010C9451000C9451008E
S11300600C9451000C94510011241FBECFEFD8E022
S1130070DEBFCDBF11E0A0E0B1E0E4EAFFE002C0E2
S113008005900D92AC33B107D9F721E0ACE3B1E0B0
S113009001C01D92A538B207E1F70E9453000C94E9
S11300A0D0070C94000015B88FEF84B91BB880EF0B
S11300B08AB918B817B85A9AE9E6F0E080818260E4
S11300C08083808181608083E89A85B5846085BD62
S11300D085B58D7F85BD85B5816085BDEEE6F0E093
S11300E080818260808385B5877F85BD84B5826089
S11300F084BD84B58E7F84BD8FE087BD6CE770E0DE
S1130100DB018C918F778C938C9180648C93C7E7FF
S1130110D1E088818C7F81608883EAE7F0E0808188
S11301208460808380818260808380818160808319
S113013088818C61888380818062808388818062E9
S113014088838BE790E0DC012C912B7F2C932C91FE
S113015022602C932C9121602C938881806C88835D
S113016028E731E0D9014C91842F8E7F8C93DB01F9
S11301708C91807F8C93842F827CD9018C93CEE7E1
S1130180D0E098819E7F988382958695869583702A
S1130190C9E7D1E05881952F9F70990F990F892B4A
S11301A0982F92709295990F990F907C4270942B8E
S11301B09C9386958695507F852B8883DB014C9193
S11301C04F7D4C939D7FD9019C939081906890833F
S11301D08061888390819860908380628883808125
S11301E080648083EFE7F1E083E091E0958384838A
S11301F093838283918380830E942F02EEE7F1E050
S113020090819160908392FB882780F98C60927032
S1130210892B0E94080278940F2EF1E1EF2EF1E071
S1130220FF2EF02DCDE7D1E06894DD24D2F804E36D
S113023011E080913C01882319F08130E1F0F9CF7D
S1130240FF92EF920E94D504BFEFE9EFF0E0B150C6
S1130250E040F040E1F700C00000188281E00E9415
S1130260080287E291E00E94EB0481E080933C0164
S11302700F900F90DECFD88280E80E940802888118
S1130280837041F488818C7F8160888380EC0E9434
S1130290080206C088818C7F888380E80E94080257
S11302A08881837088832091020180913D0190911F
S11302B03E011F922F939F938F931F930F930E943E
S11302C0D5040F900F900F900F900F900F90B1CF17
S11302D01F920F920FB60F9211242F938F939F9317
S11302E080910201833421F486E48093020107C0E3
S11302F080910201863419F483E4809302012FEF84
S113030089EF90E0215080409040E1F700C0000068
S11303109F918F912F910F900FBE0F901F90189562
S11303201F920F920FB60F9211240F900FBE0F90D1
S11303301F9018951F920F920FB60F9211242F93AE
S11303403F934F935F936F937F938F939F93AF9359
S1130350BF93EF93FF93409178005091790024EF7D
S113036031E0429FC001439F900D529F900D112494
S1130370892F992786958695909301018093000192
S1130380809102018634E9F46091000170910101C9
S1130390072E000C880B990B0E94DC0326E636E638
S11303A046EE5FE30E94680420E030E040E052E45F
S11303B00E9438030E94A40370933E0160933D01A0
S11303C00CC080910201833441F48091000190912A
S11303D0010190933E0180933D01EAE7F0E08081C2
S11303E086FDFDCFEAE7F0E0808180618083FF91A4
S11303F0EF91BF91AF919F918F917F916F915F9199
S11304004F913F912F910F900FBE0F901F90189511
S113041095B1282F22952F70907F922B95B922E0C9
S1130420382F3F702D9895E09A95F1F700002C9A9B
S1130430E5E0EA95F1F700002C98F0EFFA95F1F772
S1130440843030F4EFE3FFE13197F1F700C00000AE
S113045095B1907F932B95B9215021F70895CF93AF
S1130460DF9385B1807F85B984B18F6084B985B10C
S11304708F7885B984B1806784B985B1807F8360C2
S113048085B985E08A95F1F700002C9A95E09A9554
S1130490F1F700002C9880EF8A95F1F78FE19EE444
S11304A00197F1F700C0000095E09A95F1F700007C
S11304B02C9A85E08A95F1F700002C9890EF9A9594
S11304C0F1F78FE193E00197F1F700C0000095E0A8
S11304D09A95F1F700002C9A85E08A95F1F70000CF
S11304E02C9890EF9A95F1F785B1807F826085B959
S11304F085E08A95F1F700002C9A95E09A95F1F73A
S113050000002C9880EF8A95F1F788E20E94080297
S113051088E00E940802CDE7D1E0188281E00E94C1
S11305200802EEE7F1E090819160908392FB8827C6
S113053080F98C609270892B0E94080284E0888381
S113054080E80E940802DF91CF9108958A30E1F497
S113055080917D01837051F4EDE7F1E080818C7F1F
S11305608160808380EC0E94080208C0EDE7F1E01E
S113057080818C7F808380E80E940802EDE7F1E0AF
S1130580808183708083089595B1282F22952F70E0
S1130590907F922B95B922E08F702D9A95E09A95D1
S11305A0F1F700002C9A95E09A95F1F700002C9849
S11305B090EF9A95F1F795B1907F982B95B92150CA
S11305C061F70895CF938A3041F5C0917D01C695B6
S11305D0C695C03130F480E20E94A602CF5FC031DC
S11305E0D1F780917D01837051F4EDE7F1E08081D2
S11305F08C7F8160808380EC0E94080208C0EDE754
S1130600F1E080818C7F808380E80E940802EDE71E
S1130610F1E080818370808326C0EDE7F1E0908172
S1130620292F2C7F2C5F9370922B908395B1282FC8
S113063022952F70907F922B95B922E08F702D9A7E
S113064095E09A95F1F700002C9A95E09A95F1F7C8
S113065000002C9890EF9A95F1F795B1907F982B24
S113066095B9215061F780E090E0CF9108955058FA
S1130670BB27AA270E944F030C942E040E94200437
S113068038F00E94270420F039F49F3F19F426F42F
S11306900C941D040EF4E095E7FB0C941704E92F69
S11306A00E943F0458F3BA1762077307840795073B
S11306B020F079F4A6F50C9461040EF4E0950B2E69
S11306C0BA2FA02D0B01B90190010C01CA01A001A0
S11306D01124FF27591B99F0593F50F4503E68F1FB
S11306E01A16F040A22F232F342F4427585FF3CF3C
S11306F0469537952795A795F0405395C9F77EF40D
S11307001F16BA0B620B730B840BBAF09150A1F055
S1130710FF0FBB1F661F771F881FC2F70EC0BA0FDB
S1130720621F731F841F48F4879577956795B79563
S1130730F7959E3F08F0B0CF9395880F08F099275E
S1130740EE0F9795879508950E94AB036894B111B5
S11307500C94620408950E94470488F09F5798F00F
S1130760B92F9927B751B0F0E1F0660F771F881FB2
S1130770991F1AF0BA95C9F714C0B13091F00E94CC
S11307806104B1E008950C946104672F782F8827E1
S1130790B85F39F0B93FCCF3869577956795B395F3
S11307A0D9F73EF490958095709561957F4F8F4F62
S11307B09F4F0895E89409C097FB3EF49095809567
S11307C0709561957F4F8F4F9F4F9923A9F0F92F13
S11307D096E9BB279395F695879577956795B79591
S11307E0F111F8CFFAF4BB0F11F460FF1BC06F5F77
S11307F07F4F8F4F9F4F16C0882311F096E911C089
S1130800772321F09EE8872F762F05C0662371F0A9
S113081096E8862F70E060E02AF09A95660F771FBD
S1130820881FDAF7880F9695879597F9089597F9B1
S11308309F6780E870E060E008959FEF80EC089582
S113084000240A94161617061806090608950024AB
S11308500A9412161306140605060895092E039425
S1130860000C11F4882352F0BB0F40F4BF2B11F499
S113087060FF04C06F5F7F4F8F4F9F4F089557FDF8
S11308809058440F551F59F05F3F71F04795880FFA
S113089097FB991F61F09F3F79F087950895121691
S11308A013061406551FF2CF4695F1DF08C016163D
S11308B017061806991FF1CF8695710561050894EE
S11308C00895E894BB2766277727CB0197F9089505
S11308D00E947B040C942E040E94200438F00E9491
S11308E0270420F0952311F00C9417040C941D0494
S11308F011240C9462040E943F0470F3959FC1F389
S1130900950F50E0551F629FF001729FBB27F00DB9
S1130910B11D639FAA27F00DB11DAA1F649F66270E
S1130920B00DA11D661F829F2227B00DA11D621F5D
S1130930739FB00DA11D621F839FA00D611D221F17
S1130940749F3327A00D611D231F849F600D211DFB
S1130950822F762F6A2F11249F5750409AF0F1F07E
S113096088234AF0EE0FFF1FBB1F661F771F881FE7
S113097091505040A9F79E3F510580F00C94170404
S11309800C9462045F3FE4F3983ED4F38695779524
S11309906795B795F795E7959F5FC1F7FE2B880F8D
S11309A0911D9695879597F90895A0E0B0E0EBED39
S11309B0F4E00C94A907AE014B5F5F4FFA0161911B
S11309C07191AF0180918101909182010E941B0578
S11309D0E2E00C94C5070F931F93CF93DF93E0914C
S11309E08101F0918201238121FF1BC08C01D0E0A1
S11309F0C0E0F80181918F016091810170918201C1
S1130A00DB011896ED91FC911997882331F0099533
S1130A10892B79F3DFEFCFEFECCF8AE00995892BAF
S1130A2019F08FEF9FEF02C08D2F9C2FDF91CF9194
S1130A301F910F910895ACE0B0E0E1E2F5E00C9471
S1130A4099077C016B018A01FC011782168283815C
S1130A5081FFBDC1CE0101964C01F7019381F601DE
S1130A6093FD859193FF81916F01882309F4ABC1B4
S1130A70853239F493FD859193FF81916F0185321D
S1130A8029F4B70190E00E940307E7CF512C312CE1
S1130A9020E02032A0F48B3269F030F4803259F037
S1130AA0833269F420612CC08D3239F0803339F4FB
S1130AB0216026C02260246023C0286021C027FD55
S1130AC027C030ED380F3A3078F426FF06C0FAE03C
S1130AD05F9E300D1124532E13C08AE0389E300DD2
S1130AE01124332E20620CC08E3221F426FD6BC1FA
S1130AF0206406C08C3611F4206802C0883641F4A4
S1130B00F60193FD859193FF81916F018111C1CF0E
S1130B10982F9F7D9554933028F40C5F1F4FFFE36B
S1130B20F9830DC0833631F0833771F0833509F0D2
S1130B305BC022C0F801808189830E5F1F4F44246B
S1130B404394512C540115C03801F2E06F0E711C0E
S1130B50F801A080B18026FF03C0652D70E002C0BB
S1130B606FEF7FEFC5012C870E94F8062C018301EB
S1130B702C852F77222E17C03801F2E06F0E711CDE
S1130B80F801A080B18026FF03C0652D70E002C08B
S1130B906FEF7FEFC5012C870E94ED062C012C8599
S1130BA02068222E830123FC1BC0832D90E048166D
S1130BB05906B0F4B70180E290E00E9403073A942A
S1130BC0F4CFF50127FC859127FE81915F01B701E0
S1130BD090E00E94030731103A94F1E04F1A510853
S1130BE04114510471F7E5C0843611F0893639F5A2
S1130BF0F80127FF07C060817181828193810C5FB6
S1130C001F4F08C060817181072E000C880B990B5F
S1130C100E5F1F4F2F76722E97FF09C09095809517
S1130C20709561957F4F8F4F9F4F2068722E2AE0F9
S1130C3030E0A4010E943B07A82EA81844C08537C1
S1130C4029F42F7EB22E2AE030E025C0F22FF97F5E
S1130C50BF2E8F36C1F018F4883579F0B4C08037D0
S1130C6019F0883721F0AFC02F2F2061B22EB4FEC7
S1130C700DC08B2D8460B82E09C024FF0AC09F2F9D
S1130C809660B92E06C028E030E005C020E130E0CF
S1130C9002C020E132E0F801B7FE07C06081718133
S1130CA0828193810C5F1F4F06C06081718180E057
S1130CB090E00E5F1F4FA4010E943B07A82EA818C6
S1130CC0FB2DFF777F2E76FE0BC0372D3E7FA514BC
S1130CD050F474FE0AC072FC08C0372D3E7E05C075
S1130CE0BA2C372D03C0BA2C01C0B52C34FF0DC06B
S1130CF0FE01EA0DF11D8081803311F4397E09C0B3
S1130D0032FF06C0B394B39404C0832F867809F0ED
S1130D10B39433FD13C030FF06C05A2CB31418F437
S1130D20530C5B18B32CB31468F4B70180E290E061
S1130D303C870E940307B3943C85F5CFB31410F4A9
S1130D403B1801C0312C34FF12C0B70180E390E09E
S1130D503C870E9403073C8532FF17C031FD03C066
S1130D6088E790E002C088E590E0B7010CC0832FCB
S1130D70867859F031FF02C08BE201C080E237FD72
S1130D808DE2B70190E00E940307A51438F4B7017F
S1130D9080E390E00E9403075A94F7CFAA94F401E9
S1130DA0EA0DF11D8081B70190E00E940307A110B4
S1130DB0F5CF332009F451CEB70180E290E00E94D0
S1130DC003073A94F6CFF7018681978102C08FEF2B
S1130DD09FEF2C96E2E10C94B507FC01059061505D
S1130DE070400110D8F7809590958E0F9F1F08953D
S1130DF0FC016150704001900110D8F780959095E6
S1130E008E0F9F1F08950F931F93CF93DF93FB01C2
S1130E10238121FD03C08FEF9FEF28C022FF16C05E
S1130E2046815781248135814217530744F4A081B8
S1130E30B1819D012F5F3F4F318320838C932681A5
S1130E4037812F5F3F4F3783268310C0EB01092F73
S1130E50182F0084F185E02D0995892BE1F68E8108
S1130E609F8101969F838E83812F902FDF91CF9155
S1130E701F910F910895FA01AA27283051F12031CA
S1130E8081F1E8946F936E7F6E5F7F4F8F4F9F4F1A
S1130E90AF4FB1E03ED0B4E03CD0670F781F891F5C
S1130EA09A1FA11D680F791F8A1F911DA11D6A0F2A
S1130EB0711D811D911DA11D20D009F468943F91DD
S1130EC02AE0269F11243019305D3193DEF6CF01DC
S1130ED00895462F4770405D4193B3E00FD0C9F7A2
S1130EE0F6CF462F4F70405D4A3318F0495D31FD0F
S1130EF04052419302D0A9F7EACFB4E0A695979562
S1130F00879577956795BA95C9F700976105710537
S1130F1008959B01AC010A2E069457954795379581
S1130F202795BA95C9F7620F731F841F951FA01DDB
S1130F3008952F923F924F925F926F927F928F9279
S1130F409F92AF92BF92CF92DF92EF92FF920F9354
S1130F501F93CF93DF93CDB7DEB7CA1BDB0B0FB65E
S1130F60F894DEBF0FBECDBF09942A88398848881B
S1130F705F846E847D848C849B84AA84B984C884B1
S1130F80DF80EE80FD800C811B81AA81B981CE0FA8
S1130F90D11D0FB6F894DEBF0FBECDBFED0108958D
S1070FA0F894FFCFEF
S1130FA40A00430000000200000000E20200000006
S1130FB40053656E736F722064650A54656D7065C1
S1130FC47261747572610054656D706572617475D3
S10F0FD472613A002564202025630000AF
S9030000FC
