:100000000C943C000C9446000C9446000C94460062
:100010000C9446000C9446000C9446000C94460048
:100020000C9446000C9446000C9446000C94460038
:100030000C9446000C9446000C9446000C94460028
:100040000C9446000C9446000C9446000C94460018
:100050000C9446000C9446000C9446000C94460008
:100060000C9446000C944600407924301912027812
:10007000001808034621060E11241FBECFEFD8E05A
:10008000DEBFCDBF0E9448000C94F5010C94000027
:10009000CF93DF93CDB7DEB728970FB6F894DEBFC6
:1000A0000FBECDBF8FEF8BB98AB99FE795B984B9E1
:1000B0004AE057E08E010F5F1F4FC12CD02EE12E7A
:1000C000FC2C9A01ADECBCEC0E94E601FC01F6951B
:1000D000E795F695E795F695E7959F01220F331F73
:1000E000CF01880F991F880F991F880F991F820FC2
:1000F000931F9A01281B390BC90101979A838983A1
:100100009F010E94E601969587959695879596950D
:1001100087959C01220F331F880F991F880F991F05
:10012000880F991F820F931FE81BF90B3197FC83EF
:10013000EB839A013695279536952795ABE7B4E181
:100140000E94E601FC01F695E7959F01ADECBCEC41
:100150000E94E60196958795969587959695879541
:100160009C01220F331F880F991F880F991F880F3A
:10017000991F820F931FE81BF90B3197FE83ED83C4
:100180009A01369527953695279536952795A5ECAE
:10019000B0E20E94E601FC01F295E295EF70EF27D4
:1001A000FF70EF279F01ADECBCEC0E94E601969535
:1001B000879596958795969587959C01220F331F75
:1001C000880F991F880F991F880F991F820F931FFF
:1001D000E81BF90B3197F887EF83D8018C2D28980D
:1001E00029982A982B98ED91FD91E759FF4FE491BA
:1001F000EBB9811102C0289A0FC0813011F4299AFD
:1002000015C0823049F42A9AEFEDFEE23197F1F7FA
:1002100000C000008F5FE3CF833041F42B9A8FED55
:100220009EE20197F1F700C00000CDC0EFEDFEE2C5
:100230003197F1F700C000008F5F843081F6C3C0B2
:100240009A01ADECBCEC0E94E601FC01F695E79545
:10025000F695E795F695E7959F01220F331FCF019D
:10026000880F991F880F991F880F991F820F931F5E
:100270009A01281B390BC90101979A8389839F0131
:100280000E94E60196958795969587959695879510
:100290009C01220F331F880F991F880F991F880F09
:1002A000991F820F931FE81BF90B3197FC83EB8397
:1002B0009A013695279536952795ABE7B4E10E94CC
:1002C000E601FC01F695E7959F01ADECBCEC0E94C0
:1002D000E6019695879596958795969587959C01C5
:1002E000220F331F880F991F880F991F880F991F9E
:1002F000820F931FE81BF90B3197FE83ED839A0160
:10030000369527953695279536952795A5ECB0E235
:100310000E94E601FC01F295E295EF70EF27FF7075
:10032000EF279F01ADECBCEC0E94E6019695879506
:1003300096958795969587959C01220F331F880F78
:10034000991F880F991F880F991F820F931FE81B11
:10035000F90B3197F887EF83AD2DBE2D8F2D28989F
:1003600029982A982B98ED91FD91E759FF4FE49138
:10037000EBB9811102C0289A0FC0813011F4299A7B
:1003800015C0823049F42A9AEFEDFEE23197F1F779
:1003900000C000008F5FE3CF833041F42B9A8FEDD4
:1003A0009EE20197F1F700C0000009C0EFEDFEE208
:1003B0003197F1F700C000008F5F843081F61F99FC
:1003C00002C04F5F5F4F1F993BCF7BCEA29FB00112
:1003D000B39FC001A39F700D811D1124911DB29F79
:0E03E000700D811D1124911D0895F894FFCF1A
:00000001FF
