:030000000208C72C
:0C08C700787FE4F6D8FD758109020882F4
:1008820075808075B0FFE5A0F4FFE4FEE4FDFC0D89
:10089200BD00010CBC17F8BD70F5EFA80608800278
:1008A200C333D8FCFD530580BD80080509E50970F6
:1008B2000205080EBE08D5AF091208008F90E4F5B4
:0508C20008F50980C1EA
:10080000EFB41000507790080DF828287302083DC7
:1008100002084102084502084902084D0208510237
:10082000085502085902085D0208610208650208BD
:100830006902086D0208710208750208797E40801D
:100840003E7E79803A7E2480367E3080327E1980EA
:100850002E7E12802A7E0280267E788022E4FE8010
:100860001E7E10801A7E0880167E0380127E4680CF
:100870000E7E21800A7E0680067E0E80027E80AF7C
:010880000671
:010881002254
:00000001FF
