:03000000020800F3
:0C080000787FE4F6D8FD758120020847DF
:030954000120037C
:10090E00E4F509758910F588D2AFD2ABC287A20182
:10091E0092B4A20092B3AF0912088C8F900509D23F
:10092E0087E4F58DF58BD28EF508E508B403FBC28E
:10093E008EE52070037520041520C287E509B410DA
:06094E00CDE4F50980C8AC
:03001B000209587F
:030958000508325D
:10088C00EFB410005077900899F82828730208C923
:10089C000208CD0208D10208D50208D90208DD02EF
:1008AC0008E10208E50208E90208ED0208F1020875
:1008BC00F50208F90208FD0209010209057E4080D3
:1008CC003E7E79803A7E2480367E3080327E19805E
:1008DC002E7E12802A7E0280267E788022E4FE8084
:1008EC001E7E10801A7E0880167E0380127E468043
:1008FC000E7E21800A7E0680067E0E80027E80AFF0
:01090C0006E4
:01090D0022C7
:10080C0002090EE493A3F8E493A34003F68001F2EB
:10081C0008DFF48029E493A3F85407240CC8C333ED
:10082C00C4540F4420C8834004F456800146F6DFBC
:10083C00E4800B0102040810204080900954E47EEF
:10084C00019360BCA3FF543F30E509541FFEE493B1
:10085C00A360010ECF54C025E060A840B8E493A378
:10086C00FAE493A3F8E493A3C8C582C8CAC583CAA3
:10087C00F0A3C8C582C8CAC583CADFE9DEE780BE5B
:01095700009F
:00000001FF
