S01200004243442D72617374726F2E7372656381
S11300000C9434000C9449000C9449000C9449005D
S11300100C9449000C9449000C9449000C94490038
S11300200C9449000C9449000C9449000C94490028
S11300300C9449000C9449000C9449000C94490018
S11300400C9449000C9449000C9449000C94490008
S11300500C9449000C9449000C9449000C944900F8
S11300600C9449000C94490011241FBECFEFD8E032
S1130070DEBFCDBF11E0A0E0B1E0E8E3F1E002C0F3
S113008005900D92AE30B107D9F70E944B000C9445
S11300909A000C940000CF93DF93CDB7DEB72E9770
S11300A00FB6F894DEBF0FBECDBF8EE0E0E0F1E006
S11300B0DE01119601900D928A95E1F78FEF8BB9CD
S11300C08AB98E010F5F1F4FBE01615F7F4FE02E23
S11300D0F12E41E050E0D801EE2DFF2D9BB180813F
S11300E032969A0102C0220F331F8A95E2F7822FBB
S11300F0809589238BB98FE39CE90197F1F700C0C0
S11301000000E617F70751F72BB18C911296FA010C
S113011002C0EE0FFF1F8A95E2F7CF01822B8BB945
S11301208FE39CE90197F1F700C00000A617B70719
S10B013059F7D1CFF894FFCF79
S11101380000010002000300040005000600A0
S9030000FC
