S01400004C43445F417374657269736B2E7372656398
S11300000C9434000C9451000C9451000C94510045
S11300100C9451000C9451000C9451000C94510018
S11300200C9451000C9451000C9451000C94510008
S11300300C9451000C9451000C9451000C945100F8
S11300400C9451000C9451000C9451000C945100E8
S11300500C9451000C9451000C9451000C945100D8
S11300600C9451000C94510011241FBECFEFD8E022
S1130070DEBFCDBF11E0A0E0B1E0ECEEF3E002C0E2
S113008005900D92AE30B107D9F721E0AEE0B1E0B2
S113009001C01D92A631B207E1F70E9482010C94BF
S11300A0F4010C9400009BB1282F207F9F70922BA9
S11300B09BB9382F3295307F22E0289895E09A95A5
S11300C0F1F70000299AE5E0EA95F1F70000299894
S11300D0F0EFFA95F1F7843030F4EFE3FFE1319774
S11300E0F1F700C000009BB19F70932B9BB9215086
S11300F021F70895CF93DF938BB18F708BB98AB1B9
S1130100806F8AB985B18C7F85B984B1836084B9E5
S11301108BB18F7080638BB985E08A95F1F700000D
S1130120299A95E09A95F1F70000299880EF8A952D
S1130130F1F78FE19EE40197F1F700C0000095E02C
S11301409A95F1F70000299A85E08A95F1F7000065
S1130150299890EF9A95F1F78FE193E00197F1F7E1
S113016000C0000095E09A95F1F70000299A85E017
S11301708A95F1F70000299890EF9A95F1F78BB1E1
S11301808F7080628BB985E08A95F1F70000299A17
S113019095E09A95F1F70000299880EF8A95F1F798
S11301A088E20E94530088E00E945300CEE0D1E030
S11301B0188281E00E945300EFE0F1E090819160A9
S11301C0908392FB882780F98C609270892B0E941F
S11301D0530084E0888380E80E945300DF91CF912C
S11301E008958A30E1F480910E01837051F4EEE0B9
S11301F0F1E080818C7F8160808380EC0E945300D9
S113020008C0EEE0F1E080818C7F808380E80E946A
S11302105300EEE0F1E080818370808308959BB108
S1130220282F207F9F70922B9BB98295807F22E09C
S1130230289A95E09A95F1F70000299A95E09A9505
S1130240F1F70000299890EF9A95F1F79BB19F7010
S1130250982B9BB9215061F70895CF938A3041F5CB
S1130260C0910E01C695C695C03130F480E20E945B
S1130270F100CF5FC031D1F780910E01837051F44A
S1130280EEE0F1E080818C7F8160808380EC0E94CD
S1130290530008C0EEE0F1E080818C7F808380E829
S11302A00E945300EEE0F1E080818370808326C0D9
S11302B0EEE0F1E09081292F2C7F2C5F9370922B3C
S11302C090839BB1282F207F9F70922B9BB982959E
S11302D0807F22E0289A95E09A95F1F70000299A08
S11302E095E09A95F1F70000299890EF9A95F1F727
S11302F09BB19F70982B9BB9215061F780E090E0EF
S1130300CF9108950E947A00E0E1F1E080E091E06D
S11303109583848393838283918380838AE290E0AC
S11303200E94B5010FE010E0C02FD12F8CE10E9494
S113033053009FEF21EE84E0915020408040E1F78C
S113034000C00000219791F7C02FD12F88E10E94AF
S113035053008FEF91EE24E0815090402040E1F76C
S113036000C00000219791F7DFCF609112017091D6
S113037013010E94BC0108950F931F93CF93DF9341
S1130380FB01238121FD03C08FEF9FEF28C022FFD3
S113039016C046815781248135814217530744F49E
S11303A0A081B1819D012F5F3F4F318320838C93C6
S11303B0268137812F5F3F4F3783268310C0EB019F
S11303C0092F182F0084F185E02D0995892BE1F67A
S11303D08E819F8101969F838E83812F902FDF9141
S10F03E0CF911F910F910895F894FFCF66
S11103EC00000002000000002D0100000000CF
S9030000FC
