:03000000020800F3
:0C080000787FE4F6D8FD75810A020847F5
:0308E800010A0002
:10088C00E4F5807590FF75B0FF75A88275890275C7
:06089C008CFFF58AD28CEE
:1008A200E4FFFEAD0774FFA805088002C333D8FC3D
:1008B200F508C374079FFD74FFA805088002C313DF
:1008C200D8FCF5095208E50AB420FBE508F4F590D6
:1008D200E4F50A0FBF00010EEF64084E70C580C038
:03000B000208E206
:0608E200050A758A0032D0
:10080C0002088CE493A3F8E493A34003F68001F26E
:10081C0008DFF48029E493A3F85407240CC8C333ED
:10082C00C4540F4420C8834004F456800146F6DFBC
:10083C00E4800B01020408102040809008E8E47E5C
:10084C00019360BCA3FF543F30E509541FFEE493B1
:10085C00A360010ECF54C025E060A840B8E493A378
:10086C00FAE493A3F8E493A3C8C582C8CAC583CAA3
:10087C00F0A3C8C582C8CAC583CADFE9DEE780BE5B
:0108EB00000C
:00000001FF
